{
  "abi": [
    {
      "inputs": [],
      "stateMutability": "nonpayable",
      "type": "constructor"
    },
    {
      "inputs": [
        {
          "internalType": "address",
          "name": "spender",
          "type": "address"
        },
        {
          "internalType": "uint256",
          "name": "allowance",
          "type": "uint256"
        },
        {
          "internalType": "uint256",
          "name": "needed",
          "type": "uint256"
        }
      ],
      "name": "ERC20InsufficientAllowance",
      "type": "error"
    },
    {
      "inputs": [
        {
          "internalType": "address",
          "name": "sender",
          "type": "address"
        },
        {
          "internalType": "uint256",
          "name": "balance",
          "type": "uint256"
        },
        {
          "internalType": "uint256",
          "name": "needed",
          "type": "uint256"
        }
      ],
      "name": "ERC20InsufficientBalance",
      "type": "error"
    },
    {
      "inputs": [
        {
          "internalType": "address",
          "name": "approver",
          "type": "address"
        }
      ],
      "name": "ERC20InvalidApprover",
      "type": "error"
    },
    {
      "inputs": [
        {
          "internalType": "address",
          "name": "receiver",
          "type": "address"
        }
      ],
      "name": "ERC20InvalidReceiver",
      "type": "error"
    },
    {
      "inputs": [
        {
          "internalType": "address",
          "name": "sender",
          "type": "address"
        }
      ],
      "name": "ERC20InvalidSender",
      "type": "error"
    },
    {
      "inputs": [
        {
          "internalType": "address",
          "name": "spender",
          "type": "address"
        }
      ],
      "name": "ERC20InvalidSpender",
      "type": "error"
    },
    {
      "anonymous": false,
      "inputs": [
        {
          "indexed": true,
          "internalType": "address",
          "name": "owner",
          "type": "address"
        },
        {
          "indexed": true,
          "internalType": "address",
          "name": "spender",
          "type": "address"
        },
        {
          "indexed": false,
          "internalType": "uint256",
          "name": "value",
          "type": "uint256"
        }
      ],
      "name": "Approval",
      "type": "event"
    },
    {
      "anonymous": false,
      "inputs": [
        {
          "indexed": false,
          "internalType": "uint256",
          "name": "itemId",
          "type": "uint256"
        },
        {
          "indexed": false,
          "internalType": "string",
          "name": "name",
          "type": "string"
        },
        {
          "indexed": false,
          "internalType": "uint256",
          "name": "requiredTokens",
          "type": "uint256"
        }
      ],
      "name": "ItemCreated",
      "type": "event"
    },
    {
      "anonymous": false,
      "inputs": [
        {
          "indexed": false,
          "internalType": "uint256",
          "name": "itemId",
          "type": "uint256"
        },
        {
          "indexed": false,
          "internalType": "string",
          "name": "name",
          "type": "string"
        }
      ],
      "name": "ItemRedeemed",
      "type": "event"
    },
    {
      "anonymous": false,
      "inputs": [
        {
          "indexed": true,
          "internalType": "address",
          "name": "from",
          "type": "address"
        },
        {
          "indexed": true,
          "internalType": "address",
          "name": "to",
          "type": "address"
        },
        {
          "indexed": false,
          "internalType": "uint256",
          "name": "value",
          "type": "uint256"
        }
      ],
      "name": "Transfer",
      "type": "event"
    },
    {
      "inputs": [
        {
          "internalType": "address",
          "name": "owner",
          "type": "address"
        },
        {
          "internalType": "address",
          "name": "spender",
          "type": "address"
        }
      ],
      "name": "allowance",
      "outputs": [
        {
          "internalType": "uint256",
          "name": "",
          "type": "uint256"
        }
      ],
      "stateMutability": "view",
      "type": "function"
    },
    {
      "inputs": [
        {
          "internalType": "address",
          "name": "spender",
          "type": "address"
        },
        {
          "internalType": "uint256",
          "name": "value",
          "type": "uint256"
        }
      ],
      "name": "approve",
      "outputs": [
        {
          "internalType": "bool",
          "name": "",
          "type": "bool"
        }
      ],
      "stateMutability": "nonpayable",
      "type": "function"
    },
    {
      "inputs": [
        {
          "internalType": "address",
          "name": "account",
          "type": "address"
        }
      ],
      "name": "balanceOf",
      "outputs": [
        {
          "internalType": "uint256",
          "name": "",
          "type": "uint256"
        }
      ],
      "stateMutability": "view",
      "type": "function"
    },
    {
      "inputs": [
        {
          "internalType": "uint256",
          "name": "amount",
          "type": "uint256"
        }
      ],
      "name": "burn",
      "outputs": [],
      "stateMutability": "nonpayable",
      "type": "function"
    },
    {
      "inputs": [
        {
          "internalType": "address",
          "name": "account",
          "type": "address"
        }
      ],
      "name": "checkBalance",
      "outputs": [
        {
          "internalType": "uint256",
          "name": "",
          "type": "uint256"
        }
      ],
      "stateMutability": "view",
      "type": "function"
    },
    {
      "inputs": [
        {
          "internalType": "uint256",
          "name": "_itemId",
          "type": "uint256"
        }
      ],
      "name": "checkItem",
      "outputs": [
        {
          "components": [
            {
              "internalType": "uint256",
              "name": "id",
              "type": "uint256"
            },
            {
              "internalType": "string",
              "name": "name",
              "type": "string"
            },
            {
              "internalType": "uint256",
              "name": "requiredTokens",
              "type": "uint256"
            },
            {
              "internalType": "bool",
              "name": "redeemed",
              "type": "bool"
            },
            {
              "internalType": "address",
              "name": "owner",
              "type": "address"
            }
          ],
          "internalType": "struct Degen.RedeemableGameItem",
          "name": "",
          "type": "tuple"
        }
      ],
      "stateMutability": "view",
      "type": "function"
    },
    {
      "inputs": [
        {
          "internalType": "string",
          "name": "_name",
          "type": "string"
        },
        {
          "internalType": "uint256",
          "name": "_requiredTokens",
          "type": "uint256"
        }
      ],
      "name": "createRedeemableItem",
      "outputs": [],
      "stateMutability": "nonpayable",
      "type": "function"
    },
    {
      "inputs": [],
      "name": "decimals",
      "outputs": [
        {
          "internalType": "uint8",
          "name": "",
          "type": "uint8"
        }
      ],
      "stateMutability": "view",
      "type": "function"
    },
    {
      "inputs": [
        {
          "internalType": "address",
          "name": "to",
          "type": "address"
        },
        {
          "internalType": "uint256",
          "name": "amount",
          "type": "uint256"
        }
      ],
      "name": "mint",
      "outputs": [],
      "stateMutability": "nonpayable",
      "type": "function"
    },
    {
      "inputs": [],
      "name": "name",
      "outputs": [
        {
          "internalType": "string",
          "name": "",
          "type": "string"
        }
      ],
      "stateMutability": "view",
      "type": "function"
    },
    {
      "inputs": [],
      "name": "nextItemId",
      "outputs": [
        {
          "internalType": "uint256",
          "name": "",
          "type": "uint256"
        }
      ],
      "stateMutability": "view",
      "type": "function"
    },
    {
      "inputs": [],
      "name": "owner",
      "outputs": [
        {
          "internalType": "address",
          "name": "",
          "type": "address"
        }
      ],
      "stateMutability": "view",
      "type": "function"
    },
    {
      "inputs": [
        {
          "internalType": "uint256",
          "name": "_itemId",
          "type": "uint256"
        }
      ],
      "name": "redeemItem",
      "outputs": [],
      "stateMutability": "nonpayable",
      "type": "function"
    },
    {
      "inputs": [
        {
          "internalType": "uint256",
          "name": "",
          "type": "uint256"
        }
      ],
      "name": "redeemableItems",
      "outputs": [
        {
          "internalType": "uint256",
          "name": "id",
          "type": "uint256"
        },
        {
          "internalType": "string",
          "name": "name",
          "type": "string"
        },
        {
          "internalType": "uint256",
          "name": "requiredTokens",
          "type": "uint256"
        },
        {
          "internalType": "bool",
          "name": "redeemed",
          "type": "bool"
        },
        {
          "internalType": "address",
          "name": "owner",
          "type": "address"
        }
      ],
      "stateMutability": "view",
      "type": "function"
    },
    {
      "inputs": [],
      "name": "symbol",
      "outputs": [
        {
          "internalType": "string",
          "name": "",
          "type": "string"
        }
      ],
      "stateMutability": "view",
      "type": "function"
    },
    {
      "inputs": [],
      "name": "totalSupply",
      "outputs": [
        {
          "internalType": "uint256",
          "name": "",
          "type": "uint256"
        }
      ],
      "stateMutability": "view",
      "type": "function"
    },
    {
      "inputs": [
        {
          "internalType": "address",
          "name": "to",
          "type": "address"
        },
        {
          "internalType": "uint256",
          "name": "value",
          "type": "uint256"
        }
      ],
      "name": "transfer",
      "outputs": [
        {
          "internalType": "bool",
          "name": "",
          "type": "bool"
        }
      ],
      "stateMutability": "nonpayable",
      "type": "function"
    },
    {
      "inputs": [
        {
          "internalType": "address",
          "name": "from",
          "type": "address"
        },
        {
          "internalType": "address",
          "name": "to",
          "type": "address"
        },
        {
          "internalType": "uint256",
          "name": "value",
          "type": "uint256"
        }
      ],
      "name": "transferFrom",
      "outputs": [
        {
          "internalType": "bool",
          "name": "",
          "type": "bool"
        }
      ],
      "stateMutability": "nonpayable",
      "type": "function"
    },
    {
      "inputs": [
        {
          "internalType": "address",
          "name": "to",
          "type": "address"
        },
        {
          "internalType": "uint256",
          "name": "amount",
          "type": "uint256"
        }
      ],
      "name": "transferTokens",
      "outputs": [],
      "stateMutability": "nonpayable",
      "type": "function"
    }
  ],
  "bytecode": {
    "object": "0x60806040523480156200001157600080fd5b50604051806040016040528060058152602001642232b3b2b760d91b815250604051806040016040528060038152602001622223a760e91b81525081600390816200005d91906200012e565b5060046200006c82826200012e565b5050600580546001600160a01b0319163317905550620001fa565b634e487b7160e01b600052604160045260246000fd5b600181811c90821680620000b257607f821691505b602082108103620000d357634e487b7160e01b600052602260045260246000fd5b50919050565b601f82111562000129576000816000526020600020601f850160051c81016020861015620001045750805b601f850160051c820191505b81811015620001255782815560010162000110565b5050505b505050565b81516001600160401b038111156200014a576200014a62000087565b62000162816200015b84546200009d565b84620000d9565b602080601f8311600181146200019a5760008415620001815750858301515b600019600386901b1c1916600185901b17855562000125565b600085815260208120601f198616915b82811015620001cb57888601518255948401946001909101908401620001aa565b5085821015620001ea5787850151600019600388901b60f8161c191681555b5050505050600190811b01905550565b61129b806200020a6000396000f3fe608060405234801561001057600080fd5b50600436106101215760003560e01c8063463f2ab6116100ad5780638da5cb5b116100715780638da5cb5b1461027257806395d89b411461029d578063a9059cbb146102a5578063bec3fa17146102b8578063dd62ed3e146102cb57600080fd5b8063463f2ab6146101e95780635f515226146102095780636a8689741461021c57806370a08231146102255780638010e5341461024e57600080fd5b80631c26dc23116100f45780631c26dc231461018e57806323b872dd146101a1578063313ce567146101b457806340c10f19146101c357806342966c68146101d657600080fd5b806306fdde0314610126578063076adf7d14610144578063095ea7b31461015957806318160ddd1461017c575b600080fd5b61012e610304565b60405161013b9190610db1565b60405180910390f35b610157610152366004610de1565b610396565b005b61016c610167366004610eb2565b6104ed565b604051901515815260200161013b565b6002545b60405190815260200161013b565b61015761019c366004610edc565b610507565b61016c6101af366004610ef5565b6106ab565b6040516012815260200161013b565b6101576101d1366004610eb2565b6106cf565b6101576101e4366004610edc565b610723565b6101fc6101f7366004610edc565b610786565b60405161013b9190610f31565b610180610217366004610f8b565b6108b1565b61018060075481565b610180610233366004610f8b565b6001600160a01b031660009081526020819052604090205490565b61026161025c366004610edc565b6108cf565b60405161013b959493929190610fa6565b600554610285906001600160a01b031681565b6040516001600160a01b03909116815260200161013b565b61012e610993565b61016c6102b3366004610eb2565b6109a2565b6101576102c6366004610eb2565b6109b0565b6101806102d9366004610fe5565b6001600160a01b03918216600090815260016020908152604080832093909416825291909152205490565b60606003805461031390611018565b80601f016020809104026020016040519081016040528092919081815260200182805461033f90611018565b801561038c5780601f106103615761010080835404028352916020019161038c565b820191906000526020600020905b81548152906001019060200180831161036f57829003601f168201915b5050505050905090565b6005546001600160a01b031633146103f55760405162461bcd60e51b815260206004820152601f60248201527f4f6e6c7920746865206f776e65722063616e20637265617465206974656d730060448201526064015b60405180910390fd5b6007805490600061040583611068565b90915550506040805160a08101825260075480825260208083018681528385018690526000606085018190523360808601529283526006909152929020815181559151909190600182019061045a90826110d1565b5060408281015160028301556060830151600390920180546080909401516001600160a01b031661010002610100600160a81b0319931515939093166001600160a81b0319909416939093179190911790915560075490517f9d997020c99a3f8b66a77e449bcdec38768a88e3470145435115473eece3cb58916104e19185908590611191565b60405180910390a15050565b6000336104fb818585610a11565b60019150505b92915050565b600081815260066020526040902054811461055a5760405162461bcd60e51b8152602060048201526013602482015272125d195b48191bd95cc81b9bdd08195e1a5cdd606a1b60448201526064016103ec565b60008181526006602052604090206003015460ff16156105bc5760405162461bcd60e51b815260206004820152601e60248201527f4974656d2068617320616c7265616479206265656e2072656465656d6564000060448201526064016103ec565b600081815260066020526040902060038101546002909101546105f09133916101009091046001600160a01b031690610a23565b6000818152600660205260409081902060038101805460016001600160a81b0319909116336101000260ff191617811790915591517f4403f1d98a654c4a2e937a7a2a5bb83e11dc60b2462480d6fec7132f30d985c7926106559285929101906111ba565b60405180910390a16000818152600660205260409081902090517f4403f1d98a654c4a2e937a7a2a5bb83e11dc60b2462480d6fec7132f30d985c7916106a0918491600101906111ba565b60405180910390a150565b6000336106b9858285610a82565b6106c4858585610a23565b506001949350505050565b6005546001600160a01b031633146107155760405162461bcd60e51b81526020600482015260096024820152682737ba1037bbb732b960b91b60448201526064016103ec565b61071f8282610b00565b5050565b336000908152602081905260409020548111156107795760405162461bcd60e51b8152602060048201526014602482015273496e73756666696369656e742062616c616e636560601b60448201526064016103ec565b6107833382610b36565b50565b6107c36040518060a0016040528060008152602001606081526020016000815260200160001515815260200160006001600160a01b031681525090565b600660008381526020019081526020016000206040518060a0016040529081600082015481526020016001820180546107fb90611018565b80601f016020809104026020016040519081016040528092919081815260200182805461082790611018565b80156108745780601f1061084957610100808354040283529160200191610874565b820191906000526020600020905b81548152906001019060200180831161085757829003601f168201915b50505091835250506002820154602082015260039091015460ff81161515604083015261010090046001600160a01b031660609091015292915050565b6001600160a01b038116600090815260208190526040812054610501565b600660205260009081526040902080546001820180549192916108f190611018565b80601f016020809104026020016040519081016040528092919081815260200182805461091d90611018565b801561096a5780601f1061093f5761010080835404028352916020019161096a565b820191906000526020600020905b81548152906001019060200180831161094d57829003601f168201915b50505050600283015460039093015491929160ff8116915061010090046001600160a01b031685565b60606004805461031390611018565b6000336104fb818585610a23565b33600090815260208190526040902054811115610a065760405162461bcd60e51b8152602060048201526014602482015273496e73756666696369656e742062616c616e636560601b60448201526064016103ec565b61071f338383610a23565b610a1e8383836001610b6c565b505050565b6001600160a01b038316610a4d57604051634b637e8f60e11b8152600060048201526024016103ec565b6001600160a01b038216610a775760405163ec442f0560e01b8152600060048201526024016103ec565b610a1e838383610c41565b6001600160a01b038381166000908152600160209081526040808320938616835292905220546000198114610afa5781811015610aeb57604051637dc7a0d960e11b81526001600160a01b038416600482015260248101829052604481018390526064016103ec565b610afa84848484036000610b6c565b50505050565b6001600160a01b038216610b2a5760405163ec442f0560e01b8152600060048201526024016103ec565b61071f60008383610c41565b6001600160a01b038216610b6057604051634b637e8f60e11b8152600060048201526024016103ec565b61071f82600083610c41565b6001600160a01b038416610b965760405163e602df0560e01b8152600060048201526024016103ec565b6001600160a01b038316610bc057604051634a1406b160e11b8152600060048201526024016103ec565b6001600160a01b0380851660009081526001602090815260408083209387168352929052208290558015610afa57826001600160a01b0316846001600160a01b03167f8c5be1e5ebec7d5bd14f71427d1e84f3dd0314c0f7b2291e5b200ac8c7c3b92584604051610c3391815260200190565b60405180910390a350505050565b6001600160a01b038316610c6c578060026000828254610c619190611252565b90915550610cde9050565b6001600160a01b03831660009081526020819052604090205481811015610cbf5760405163391434e360e21b81526001600160a01b038516600482015260248101829052604481018390526064016103ec565b6001600160a01b03841660009081526020819052604090209082900390555b6001600160a01b038216610cfa57600280548290039055610d19565b6001600160a01b03821660009081526020819052604090208054820190555b816001600160a01b0316836001600160a01b03167fddf252ad1be2c89b69c2b068fc378daa952ba7f163c4a11628f55a4df523b3ef83604051610d5e91815260200190565b60405180910390a3505050565b6000815180845260005b81811015610d9157602081850181015186830182015201610d75565b506000602082860101526020601f19601f83011685010191505092915050565b602081526000610dc46020830184610d6b565b9392505050565b634e487b7160e01b600052604160045260246000fd5b60008060408385031215610df457600080fd5b823567ffffffffffffffff80821115610e0c57600080fd5b818501915085601f830112610e2057600080fd5b813581811115610e3257610e32610dcb565b604051601f8201601f19908116603f01168101908382118183101715610e5a57610e5a610dcb565b81604052828152886020848701011115610e7357600080fd5b826020860160208301376000602093820184015298969091013596505050505050565b80356001600160a01b0381168114610ead57600080fd5b919050565b60008060408385031215610ec557600080fd5b610ece83610e96565b946020939093013593505050565b600060208284031215610eee57600080fd5b5035919050565b600080600060608486031215610f0a57600080fd5b610f1384610e96565b9250610f2160208501610e96565b9150604084013590509250925092565b60208152815160208201526000602083015160a06040840152610f5760c0840182610d6b565b90506040840151606084015260608401511515608084015260018060a01b0360808501511660a08401528091505092915050565b600060208284031215610f9d57600080fd5b610dc482610e96565b85815260a060208201526000610fbf60a0830187610d6b565b60408301959095525091151560608301526001600160a01b031660809091015292915050565b60008060408385031215610ff857600080fd5b61100183610e96565b915061100f60208401610e96565b90509250929050565b600181811c9082168061102c57607f821691505b60208210810361104c57634e487b7160e01b600052602260045260246000fd5b50919050565b634e487b7160e01b600052601160045260246000fd5b60006001820161107a5761107a611052565b5060010190565b601f821115610a1e576000816000526020600020601f850160051c810160208610156110aa5750805b601f850160051c820191505b818110156110c9578281556001016110b6565b505050505050565b815167ffffffffffffffff8111156110eb576110eb610dcb565b6110ff816110f98454611018565b84611081565b602080601f831160018114611134576000841561111c5750858301515b600019600386901b1c1916600185901b1785556110c9565b600085815260208120601f198616915b8281101561116357888601518255948401946001909101908401611144565b50858210156111815787850151600019600388901b60f8161c191681555b5050505050600190811b01905550565b8381526060602082015260006111aa6060830185610d6b565b9050826040830152949350505050565b8281526000602060406020840152600084546111d581611018565b80604087015260606001808416600081146111f7576001811461121357611243565b60ff19851660608a0152606084151560051b8a01019550611243565b89600052602060002060005b8581101561123a5781548b820186015290830190880161121f565b8a016060019650505b50939998505050505050505050565b808201808211156105015761050161105256fea26469706673582212208cfcd75d091d36877409da2e320f5fe0d153ce4fe84715cb4c6dbba60eb9e32664736f6c63430008170033",
    "linkReferences": {}
  },
  "methodIdentifiers": {
    "allowance(address,address)": "dd62ed3e",
    "approve(address,uint256)": "095ea7b3",
    "balanceOf(address)": "70a08231",
    "burn(uint256)": "42966c68",
    "checkBalance(address)": "5f515226",
    "checkItem(uint256)": "463f2ab6",
    "createRedeemableItem(string,uint256)": "076adf7d",
    "decimals()": "313ce567",
    "mint(address,uint256)": "40c10f19",
    "name()": "06fdde03",
    "nextItemId()": "6a868974",
    "owner()": "8da5cb5b",
    "redeemItem(uint256)": "1c26dc23",
    "redeemableItems(uint256)": "8010e534",
    "symbol()": "95d89b41",
    "totalSupply()": "18160ddd",
    "transfer(address,uint256)": "a9059cbb",
    "transferFrom(address,address,uint256)": "23b872dd",
    "transferTokens(address,uint256)": "bec3fa17"
  },
  "id": 25
}